:100000000C9489000C949D000C949D000C949D0010
:100010000C949D000C949D000C949D000C949D00EC
:100020000C949D000C949D000C949D000C949D00DC
:100030000C949D000C949D000C949D000C949D00CC
:100040000C949D000C94BE010C949D000C949D009A
:100050000C949D000C949D000C949D000C949D00AC
:100060000C949D000C949D000C949D000C949D009C
:100070000C949D000C949D000C949D000C949D008C
:100080000C949D000C949D000C949D000C949D007C
:100090000C949D000C949D000C949D000C949D006C
:1000A0000C949D000C949D000C949D000C949D005C
:1000B0000C949D000C949D000C949D000C949D004C
:1000C0000C949D000C949D000C949D000C949D003C
:1000D0000C949D000C949D000C949D000C949D002C
:1000E0000C949D000C94A6000C94AD000C949F0001
:1000F00045464765666700202B2D2E30313233345C
:10010000353637383968006364696E6F7073757897
:10011000580011241FBECFEFD1E2DEBFCDBF00E0FB
:100120000CBF26E0A0E0B2E001C01D92A831B207EA
:10013000E1F70E9446020C94B9060C9400002F9A35
:1001400080E09DE701970097E9F7F9CF2F9880E0CD
:100150009DE701970097E9F7F9CF8091060290910A
:100160000702892B51F0F894E0911606F0911706DA
:10017000EE5FFE4F10820C9414020895FC0132963B
:1001800020E031E0DF01A9011D9241505040E1F72C
:10019000E150FF4F2DEA30E02083319730833197D3
:1001A00010823197608331977083319710829C0160
:1001B00027523F4FDC012D933C93369621E020835C
:1001C000089520910402309105022430310539F15F
:1001D000ECE0F3E020E030E04081442339F02F5F91
:1001E0003F4FED5FFE4F24303105B1F740910402DF
:1001F000509105024F5F5F4F5093050240930402F8
:10020000A901440F551F722F6627460F571F420F33
:10021000531FBC01CA01865F9D4F0C94BE00089518
:100220008091080290910902FC01EE0FFF1F382F08
:100230002227E20FF31FE80FF91FE45FFC4F8081D4
:10024000813061F0809108029091090201968370DB
:1002500099279093090280930802E2CF2091080227
:1002600030910902C901880F991F522F4427840F2A
:10027000951F820F931F865F9D4F90931706809363
:100280001606FC01EE5FFE4F22E0208380910802FB
:1002900090910902019683709927909309028093A7
:1002A00008020895109205021092040210920702AB
:1002B000109206021092090210920802EAE0F2E09F
:1002C00083E091E0DF019C011D9221503040E1F775
:1002D000DF01AE5FBE4F1C92ED5FFE4F36E0E631B0
:1002E000F30781F708958091060290910702892B08
:1002F00079F48091040290910502892B49F0F894D9
:1003000081E090E090930702809306020C9414021F
:100310000895F8940E94E10078940895809106026F
:1003200090910702892B09F40895F894E09116063C
:10033000F0911706EE5FFE4F81E080830E94E60198
:1003400078940895F89410928000E1E8F0E010822B
:1003500088E09DE390938900809388008081886085
:100360008083808181608083808184608083EFE6E8
:10037000F0E0808182608083789408951F920F92CC
:100380000FB60F9211240BB60F922F933F934F93FA
:100390005F936F937F938F939F93AF93BF93EF93ED
:1003A000FF930E948E01FF91EF91BF91AF919F91BA
:1003B0008F917F916F915F914F913F912F910F900E
:1003C0000BBE0F900FBE0F901F9018950F921F92AB
:1003D0002F923F924F925F926F927F928F929F9255
:1003E000AF92BF92CF92DF92EF92FF920F931F9343
:1003F0002F933F934F935F936F937F938F939F932D
:10040000AF93BF93CF93DF93EF93FF93FCB7FF932B
:10041000FFB7FF93E0911606F0911706BDB7CEB770
:10042000DCB7B193C193D1930E941001E0911606FD
:10043000F0911706B191C191D191BDBFCEBFDCBF84
:10044000FF91FFBFFF91FCBFFF91EF91DF91CF9133
:10045000BF91AF919F918F917F916F915F914F91DC
:100460003F912F911F910F91FF90EF90DF90CF90D0
:10047000BF90AF909F908F907F906F905F904F90C4
:100480003F902F901F900F907894089580E884B942
:100490000E945201F89486EA90E00E94E10078946C
:1004A000F8948FE990E00E94E10078940E94A20104
:1004B0008091060290910702892B09F0FFCF80916D
:1004C000040290910502892BC9F3F89481E090E031
:1004D00090930702809306020C941402EFCF6F9260
:1004E0007F929F92AF92BF92CF92DF92EF92FF9254
:1004F0000F931F93CF93DF93CDB7DEB72C970FB633
:10050000F894DEBF0FBECDBF8C017B013A01FC0128
:1005100017821682838181FF19C1CE0101965C0189
:10052000F801D380F701D3FC2591D3FE21917F01FF
:10053000222309F407C1253249F4D3FC2591D3FEC7
:1005400021917F01253211F0912C1BC0B801822F1F
:1005500090E00E940D0663013601E2CF222309F4E8
:10056000F1C0622F70E087EF90E02C870E94C405F5
:100570002C85892B49F0F701D3FC2591D3FE2191DD
:100580007F0197FEEBCF0CC0233221F4F92DF061EF
:100590009F2EF1CF2C3639F4292D2068922EEBCFE7
:1005A000222309F4CFC0622F70E080EF90E02C8707
:1005B0000E94C4052C85892B41F06301F4E0CF0E25
:1005C000D11CB8018FE390E012C0233641F02337ED
:1005D00089F0233521F5F92DF1609F2E0BC06301C1
:1005E00022E0C20ED11CB801F301808191810E94EA
:1005F0000D06B2CF630122E0C20ED11CF301608070
:100600007180F30190FC859190FE81913F018823D8
:1006100009F4A2CFB80190E00E940D06F2CF243673
:1006200011F0293639F5630197FE09C0F4E0CF0EC9
:10063000D11CF30160817181828193810AC0F2E053
:10064000CF0ED11CF30160817181882777FD8095E1
:10065000982FF92DFF7E9F2E97FF09C090958095CA
:10066000709561957F4F8F4F9F4FF0649F2E2AE0CA
:1006700030E038C02037A1F040F42835D1F02F36D3
:1006800009F060C028E030E019C0253719F028379C
:1006900051F058C0292D2F7E922E2AE030E00EC056
:1006A000892D8061982E992D9462992E20E130E059
:1006B00005C0E92DE4609E2E20E132E0630197FE43
:1006C00009C0F4E0CF0ED11CF301608171818281F9
:1006D000938108C0F2E0CF0ED11CF30160817181DB
:1006E00080E090E0A5010E945806782E7A1896FEC8
:1006F00005C0B8018DE290E00E940D0694FE16C080
:10070000FE01E70DF11D8081803381F0B80180E3A7
:1007100090E00E940D0692FE09C0292D2072822FC2
:1007200090E0B801885A9F4F0E940D067A94F50117
:10073000E70DF11D8081B80190E00E940D06711057
:10074000F5CF0ACFF8018681978102C08FEF9FEF26
:100750002C960FB6F894DEBF0FBECDBFDF91CF91C0
:100760001F910F91FF90EF90DF90CF90BF90AF90CF
:100770009F907F906F90089520FD09C0FC0123FD9C
:1007800005C022FF02C073836283518340830895B2
:1007900044FD10C046FD10C0DB01FC01AA0FBB1FC9
:1007A000EE1FFF1F1094D1F76A0F7B1F8E1F9F1F34
:1007B00031E003C033E001C034E0660F771F881FCB
:1007C000991F3150D1F7620F711D811D911D089540
:1007D0000F931F93CF93DF938C01C8010E94CF0525
:1007E000EC0197FD08C00E94BC05892BB1F7B80148
:1007F000CE010E943F06CE01DF91CF911F910F9154
:1008000008958F929F92AF92CF92DF92EF92FF92D4
:100810000F931F93CF93DF93EC01A62E4A01022F73
:100820000E94CF05AC0155274B32510521F04D32C6
:10083000510551F40068AA9411F480E067C0CE011C
:100840000E94CF0597FDF9CF102F1D7F302F3073F9
:1008500001F58033F1F4FF24FA94FA0C09F442C054
:10086000CE010E94CF0597FD3DC0382F3F7D383522
:1008700051F41264AA94AA94A9F1CE010E94CF0562
:1008800097FF07C02FC006FF02C0126001C01261AF
:10089000AF2CC12CD12C760120ED280F283080F010
:1008A00014FF04C0BE010E943F0619C02A3040F068
:1008B00016FFF8CF2F7D3FEE320F363098F72750D6
:1008C000412FC701B6010E94C8036B017C01126071
:1008D000AA9459F0CE010E94CF0597FFDDCF11FDFC
:1008E00004C0ABCFC12CD12C760117FF08C0F09407
:1008F000E094D094C094C11CD11CE11CF11C212FA8
:10090000B701A601C4010E94BC0381E0DF91CF9131
:100910001F910F91FF90EF90DF90CF90AF909F903D
:100920008F9008954F925F927F928F929F92AF9295
:10093000BF92CF92DF92EF92FF920F931F93CF93CC
:10094000DF931F92CDB7DEB78C012B017A01FC013A
:1009500017821682A12CF801D380F201D3FC859175
:10096000D3FE8191382F2F01882309F4EFC090E046
:1009700039830E94BC053981892B21F0C8010E946E
:10098000E803E9CF353241F4F201D3FC3591D3FECF
:1009900031912F01353269F4C80139830E94CF05A6
:1009A000398197FDD1C03817B1F2B8010E943F06D6
:1009B000CDC03A3241F4D3FC3591D3FE31912F01B1
:1009C000BB24B39401C0B12C712C20ED230F2A302D
:1009D00090F4FB2DF260BF2E672D70E080E090E078
:1009E00040E20E94C803762EF201D3FC3591D3FE7B
:1009F00031912F01EACFB1FE03C0711003C0A6C030
:100A000077247A94383619F03C3661F014C0F2013C
:100A1000D3FC3591D3FE31912F01383661F4FB2D93
:100A2000F860BF2E8B2D8460B82EF201D3FC359177
:100A3000D3FE31912F01332309F488C0632F70E076
:100A400087E091E039830E94C4053981892B09F43C
:100A50007DC0B0FC07C0F701C080D180C7010296FD
:100A60007C0102C0C12CD12C3E3651F4F8014681E4
:100A7000578160E070E02B2DC6010E94BC036BCF54
:100A80003336A1F4B1FC02C077247394C8010E94EC
:100A9000CF0597FD59C0C114D10429F0F601808318
:100AA000C60101966C017A9489F74AC0C80139835E
:100AB0000E94E803398197FD47C03F3669F128F469
:100AC000343631F1393679F12BC0333769F03537A7
:100AD000F9F026C0C114D10429F0F6018082C601C4
:100AE00001966C017A9471F0C8010E94CF054C0107
:100AF00097FD08C00E94BC05892B61F3B801C401B1
:100B00000E943F06C114D104D9F0F601108218C02A
:100B1000FB2DF062BF2E07C08B2D8061B82E03C065
:100B20009B2D9064B92E2B2DA601672DC8010E9424
:100B30000104811105C0F8018381807329F406C086
:100B4000B0FC09CFA39407CFAA2019F08A2D90E01A
:100B500002C08FEF9FEF0F90DF91CF911F910F9108
:100B6000FF90EF90DF90CF90BF90AF909F908F90CD
:100B70007F905F904F9008959111F8C0803219F0E6
:100B800089508550D0F70895FC010590061621F094
:100B90000020D9F7C00108953197CF010895CF9370
:100BA000DF93EC012B8120FF33C026FF0AC02F7B8F
:100BB0002B838E819F8101969F838E838A8190E013
:100BC00029C022FF0FC0E881F9818081992787FD24
:100BD0009095009719F420622B831AC03196F983FF
:100BE000E8830EC0EA85FB85199597FF09C02B8124
:100BF000019611F480E101C080E2822B8B8308C052
:100C00002E813F812F5F3F4F3F832E83992702C064
:100C10008FEF9FEFDF91CF9108950F931F93CF93A5
:100C2000DF93182F092FEB018B8181FD03C08FEF1C
:100C30009FEF20C082FF10C04E815F812C813D81DB
:100C4000421753077CF4E881F9819F012F5F3F4FE2
:100C500039832883108306C0E885F985812F19958B
:100C6000892B29F72E813F812F5F3F4F3F832E83B2
:100C7000812F902FDF91CF911F910F910895FB014C
:100C8000238120FF12C026FD10C08F3F3FEF930746
:100C900061F082832F7D2064238326813781215058
:100CA000310937832683992708958FEF9FEF0895A1
:100CB000FA01AA27283051F1203181F1E8946F938D
:100CC0006E7F6E5F7F4F8F4F9F4FAF4FB1E03ED033
:100CD000B4E03CD0670F781F891F9A1FA11D680FD1
:100CE000791F8A1F911DA11D6A0F711D811D911D04
:100CF000A11D20D009F468943F912AE0269F112479
:100D00003019305D3193DEF6CF010895462F4770DC
:100D1000405D4193B3E00FD0C9F7F6CF462F4F7037
:100D2000405D4A3318F0495D31FD4052419302D095
:100D3000A9F7EACFB4E0A69597958795779567953B
:100D4000BA95C9F700976105710508959B01AC013B
:100D50000A2E06945795479537952795BA95C9F762
:100D6000620F731F841F951FA01D08959927882760
:060D70000895F894FFCF86
:00000001FF
