:100000000C94A1000C94B5000C94B5000C94B500B0
:100010000C94B5000C94B5000C94B5000C94B5008C
:100020000C94B5000C94B5000C94B5000C94B5007C
:100030000C94B5000C94B5000C94B5000C94B5006C
:100040000C94B5000C9413050C94B5000C94B500F9
:100050000C94B5000C94B5000C94B5000C94B5004C
:100060000C94B5000C94B5000C94B5000C94B5003C
:100070000C94B5000C94B5000C94B5000C94B5002C
:100080000C94B5000C94B5000C94B5000C94B5001C
:100090000C94B5000C94B5000C94B5000C94B5000C
:1000A0000C94B5000C94B5000C94B5000C94B500FC
:1000B0000C94B5000C94B5000C94B5000C94B500EC
:1000C0000C94B5000C94B5000C94B5000C94B500DC
:1000D0000C94B5000C94B5000C94B5000C94B500CC
:1000E0000C94B500D700E200ED00F80003010E010A
:1000F000190124010C9480030C9424010C94B00485
:100100000C9403010C94ED000C94F8000C9419016C
:100110000C94D7000C94DF040C94E2000C940E01B4
:1001200045464765666700202B2D2E30313233342B
:10013000353637383968006364696E6F7073757867
:10014000580011241FBECFEFD1E2DEBFCDBF00E0CB
:100150000CBF22E1A0E0B2E001C01D92AC39B207B1
:10016000E1F70E947E050C94A60A0C940000CF9340
:10017000DF9300D0CDB7DEB78A836B8381E08983BC
:1001800074C08A81882F90E0AA2797FDA095BA2F86
:1001900040E050E027E030E0841B950B281739073A
:1001A00008F45DC08E589F4FFC010C949C098BE0B5
:1001B00091E02BE031E0F901308128E02327FC01B8
:1001C00020834DC08BE091E02BE031E0F9013081DC
:1001D00024E02327FC01208342C08BE091E02BE048
:1001E00031E0F901308122E02327FC01208337C070
:1001F0008BE091E02BE031E0F901308121E0232711
:10020000FC0120832CC085E290E025E230E0F9017A
:10021000308128E02327FC01208321C085E290E083
:1002200025E230E0F901308124E02327FC0120831E
:1002300016C085E290E025E230E0F901308122E04D
:100240002327FC0120830BC085E290E025E230E00B
:10025000F901308121E02327FC01208300008B81FC
:10026000882311F01B8201C019828981882309F03B
:1002700088CF0F900F900F90DF91CF910895CF937B
:10028000DF931F92CDB7DEB78FE590E0FC01808150
:100290008983789489810F90DF91CF910895CF93CE
:1002A000DF931F92CDB7DEB78FE590E0FC01808130
:1002B0008983F89461E087E00E94B70089810F90FC
:1002C000DF91CF910895CF93DF931F92CDB7DEB723
:1002D0008983898188231CF40E943F0102C00E9407
:1002E0004F010F90DF91CF910895CF93DF9300D00E
:1002F00000D0CDB7DEB79C838B837E836D838B81EB
:100300009C818F5F9E4F9A8389838B819C8102960B
:1003100040E051E060E070E00E94B50989819A8177
:100320009C01215031093A83298320E833E0FC0104
:10033000208389819A819C01215031093A83298344
:1003400020E833E0232F3327FC01208389819A8121
:100350009C01215031093A8329832D813E81FC0182
:10036000208389819A819C01215031093A83298314
:100370002D813E81232F3327FC01208389819A819F
:100380009C01215031093A832983FC011082898123
:100390009A8182979A8389838B819C8129813A8172
:1003A000FC01318320838B819C818D5F9E4F2D8149
:1003B0003E81FC01318320838B819C818B5F9E4F2A
:1003C000FC0110828B819C818E5F9E4F21E0FC019D
:1003D000208326960FB6F894DEBF0FBECDBFDF9107
:1003E000CF910895CF93DF9300D01F92CDB7DEB7A2
:1003F0009C838B831A82198280910402909105025A
:100400008031910519F489819A813CC01A82198240
:1004100017C049815A8129E031E0429FC001439FC2
:10042000900D529F900D1124885F9C4FFC0180819C
:10043000882309F40AC089819A8101969A83898365
:1004400089819A818031910524F3809104029091F1
:1004500005020196909305028093040249815A8116
:1004600029E031E0429FC001439F900D529F900DC3
:1004700011248A5F9D4F2B813C81B9010E94750137
:1004800089819A810F900F900F900F90DF91CF91FB
:100490000895CF93DF93CDB7DEB70BC080910002F4
:1004A0009091010201968F70992790930102809399
:1004B0000002409100025091010229E031E0429F88
:1004C000C001439F900D529F900D1124885F9C4F57
:1004D000FC018081813011F780910002909101022E
:1004E00061E00E94B700409100025091010229E0B2
:1004F00031E0429FC001439F900D529F900D112407
:100500008A5F9D4F909397128093961280919612D6
:1005100090919712FC018081918190939B1280931E
:100520009A1280919612909197128E5F9E4F22E0C0
:10053000FC012083809100029091010201968F704E
:1005400099279093010280930002DF91CF91089543
:10055000CF93DF93CDB7DEB70E9449028091961208
:10056000909197128B5F9E4FFC01108280919612A2
:1005700090919712FC018081918190939B128093BE
:100580009A120E94A505809196129091971220913F
:100590009A1230919B12FC01318320838091961234
:1005A000909197128B5F9E4FFC018081882F90E085
:1005B0008130910569F0823091051CF40097A1F01B
:1005C0002AC08230910581F083309105C9F023C0A3
:1005D00080919612909197128D5F9E4FFC018081C1
:1005E00091810E94F20117C080919612909197120A
:1005F0008E5F9E4F21E0FC0120830E9449020BC0C8
:1006000080919612909197128E5F9E4FFC011082FE
:100610000E9449020000A2CFCF93DF931F921F9246
:10062000CDB7DEB70E944F011A82198205C08981B9
:100630009A8101969A83898389819A818A32910568
:10064000B4F388E190E028E00FB6F894A895809381
:1006500060000FBE20936000FFCFCF93DF93CDB734
:10066000DEB728970FB6F894DEBF0FBECDBF9D83CF
:100670008C836E8358874F8380910202909103028E
:100680000097E9F00E944F018B8380919612909120
:1006900097128B5F9E4F21E0FC0120838091961280
:1006A000909197128D5F9E4F2C813D81FC0131838B
:1006B00020830E94FA058B810E94630106C08C8111
:1006C0009D810E94F2019A83898349815A8129E0A0
:1006D00031E0429FC001439F900D529F900D112425
:1006E000845F9C4F2E81FC01208389819A8128960A
:1006F0000FB6F894DEBF0FBECDBFDF91CF91089546
:10070000CF93DF93CDB7DEB78091020290910302C1
:10071000009769F00E944F01809196129091971274
:100720008B5F9E4F23E0FC0120830E94FA05DF913E
:10073000CF910895CF93DF93CDB7DEB780910202BA
:1007400090910302009769F00E944F0180919612E8
:10075000909197128B5F9E4F22E0FC0120830E94B4
:10076000FA05DF91CF910895CF93DF9300D0CDB7F5
:10077000DEB78FE590E0FC01808189830E944F0104
:100780008091961290919712895F9E4FFC01808113
:1007900091819B838A838FE590E02981FC012083EE
:1007A0008A819B810F900F900F90DF91CF910895D8
:1007B000CF93DF931F921F92CDB7DEB79A838983C1
:1007C0000F900F90DF91CF910895CF93DF931F92F9
:1007D0001F92CDB7DEB79A8389830F900F90DF9178
:1007E000CF910895CF93DF931F921F92CDB7DEB7BD
:1007F0009A8389830F900F90DF91CF910895CF93C3
:10080000DF93CDB7DEB780E090E0DF91CF91089520
:10081000CF93DF931F921F92CDB7DEB79A83898360
:100820000F900F90DF91CF910895CF93DF931F9298
:100830001F92CDB7DEB79A8389830F900F90DF9117
:10084000CF910895CF93DF93CDB7DEB780E090E0EE
:10085000DF91CF910895CF93DF931F921F92CDB771
:10086000DEB79A8389830F900F90DF91CF9108951F
:10087000CF93DF931F921F92CDB7DEB79A83898300
:100880000F900F90DF91CF910895CF93DF931F9238
:100890001F92CDB7DEB7109205021092040210929B
:1008A00003021092020210920102109200021A82B8
:1008B000198227C049815A8129E031E0429FC00155
:1008C000439F900D529F900D11248A5F9D4F49E0E8
:1008D00051E060E070E00E94B50949815A8129E049
:1008E00031E0429FC001439F900D529F900D112413
:1008F000885F9C4FFC01108289819A8101969A83BE
:10090000898389819A8180319105A4F261E083E035
:100910000E94B7000F900F90DF91CF910895CF9371
:10092000DF93CDB7DEB7809102029091030200976A
:10093000A1F48091040290910502009771F00E9449
:100940004F0181E090E0909303028093020261E006
:1009500083E00E94B7000E94A802DF91CF91089522
:10096000CF93DF9300D01F92CDB7DEB719821A82E2
:100970001B821C8285E290E025E230E0F9012081B3
:100980002068FC01208319821A821B821C820BC002
:1009900089819A81AB81BC810196A11DB11D89839A
:1009A0009A83AB83BC8389819A81AB81BC8180347B
:1009B000F2E49F07FFE0AF07B10550F3DBCFCF9321
:1009C000DF9300D01F92CDB7DEB719821A821B8247
:1009D0001C8285E290E025E230E0F90120812F774A
:1009E000FC01208319821A821B821C820BC0898120
:1009F0009A81AB81BC810196A11DB11D89839A8327
:100A0000AB83BC8389819A81AB81BC818034F2E461
:100A10009F07FFE0AF07B10550F3DBCFCF93DF9324
:100A2000CDB7DEB7FFCF1F920F9200905F000F92FD
:100A3000112400905B000F922F933F934F935F938D
:100A40006F937F938F939F93AF93BF93EF93FF9396
:100A5000CF93DF93CDB7DEB70E949A03DF91CF919A
:100A6000FF91EF91BF91AF919F918F917F916F9186
:100A70005F914F913F912F910F9000925B000F90EB
:100A800000925F000F901F901895CF93DF931F92F5
:100A9000CDB7DEB70E944F01898380E890E0FC016A
:100AA000108281E890E0FC01108288E890E021E764
:100AB00032E0FC013183208381E890E021E830E0DE
:100AC000F90120812860FC01208381E890E021E881
:100AD00030E0F90120812460FC0120838FE690E062
:100AE0002FE630E0F90120812260FC01208389811A
:100AF0000E9463010F90DF91CF910895CF93DF9310
:100B0000CDB7DEB784E290E02FEFFC0120838AE0CE
:100B100091E02FEFFC0120830E94450440E050E06B
:100B200060E08FED94E00E942D0340E050E060E033
:100B300080EB94E00E942D030E9445050E948F04E3
:100B400080E090E0DF91CF9108950F921F922F9255
:100B50003F924F925F926F927F928F929F92AF924D
:100B6000BF92CF92DF92EF92FF920F931F932F933A
:100B70003F934F935F936F937F938F939F93AF9325
:100B8000BF93CF93DF93EF93FF93FCB7FF93FFB730
:100B9000FF93EDB7FEB7E0939812F0939912E091AE
:100BA0009A12F0919B12EDBFFEBFFF91FFBFFF9124
:100BB000FCBFFF91EF91DF91CF91BF91AF919F91DA
:100BC0008F917F916F915F914F913F912F911F91E5
:100BD0000F91FF90EF90DF90CF90BF90AF909F90DC
:100BE0008F907F906F905F904F903F902F901F90CD
:100BF0000F9018950F921F922F923F924F925F92F3
:100C00006F927F928F929F92AF92BF92CF92DF921C
:100C1000EF92FF920F931F932F933F934F935F9306
:100C20006F937F938F939F93AF93BF93CF93DF93F4
:100C3000EF93FF93FCB7FF93FFB7FF93EDB7FEB7BA
:100C4000E0939A12F0939B12E0919812F09199120E
:100C5000EDBFFEBFFF91FFBFFF91FCBFFF91EF9182
:100C6000DF91CF91BF91AF919F918F917F916F91C4
:100C70005F914F913F912F911F910F91FF90EF90B6
:100C8000DF90CF90BF90AF909F908F907F906F90AC
:100C90005F904F903F902F901F900F9008956F920C
:100CA0007F929F92AF92BF92CF92DF92EF92FF928C
:100CB0000F931F93CF93DF93CDB7DEB72C970FB66B
:100CC000F894DEBF0FBECDBF8C017B013A01FC0161
:100CD00017821682838181FF19C1CE0101965C01C2
:100CE000F801D380F701D3FC2591D3FE21917F0138
:100CF000222309F407C1253249F4D3FC2591D3FE00
:100D000021917F01253211F0912C1BC0B801822F57
:100D100090E00E94FA0963013601E2CF222309F430
:100D2000F1C0622F70E087E291E02C870E94AA094F
:100D30002C85892B49F0F701D3FC2591D3FE219115
:100D40007F0197FEEBCF0CC0233221F4F92DF06127
:100D50009F2EF1CF2C3639F4292D2068922EEBCF1F
:100D6000222309F4CFC0622F70E080E291E02C874B
:100D70000E94AA092C85892B41F06301F4E0CF0E73
:100D8000D11CB8018FE390E012C0233641F0233725
:100D900089F0233521F5F92DF1609F2E0BC06301F9
:100DA00022E0C20ED11CB801F301808191810E9422
:100DB000FA09B2CF630122E0C20ED11CF3016080B8
:100DC0007180F30190FC859190FE81913F01882311
:100DD00009F4A2CFB80190E00E94FA09F2CF2436BC
:100DE00011F0293639F5630197FE09C0F4E0CF0E02
:100DF000D11CF30160817181828193810AC0F2E08C
:100E0000CF0ED11CF30160817181882777FD809519
:100E1000982FF92DFF7E9F2E97FF09C09095809502
:100E2000709561957F4F8F4F9F4FF0649F2E2AE002
:100E300030E038C02037A1F040F42835D1F02F360B
:100E400009F060C028E030E019C0253719F02837D4
:100E500051F058C0292D2F7E922E2AE030E00EC08E
:100E6000892D8061982E992D9462992E20E130E091
:100E700005C0E92DE4609E2E20E132E0630197FE7B
:100E800009C0F4E0CF0ED11CF30160817181828131
:100E9000938108C0F2E0CF0ED11CF3016081718113
:100EA00080E090E0A5010E94450A782E7A1896FE0F
:100EB00005C0B8018DE290E00E94FA0994FE16C0C8
:100EC000FE01E70DF11D8081803381F0B80180E3E0
:100ED00090E00E94FA0992FE09C0292D2072822F0B
:100EE00090E0B801885A9F4F0E94FA097A94F50160
:100EF000E70DF11D8081B80190E00E94FA097110A0
:100F0000F5CF0ACFF8018681978102C08FEF9FEF5E
:100F10002C960FB6F894DEBF0FBECDBFDF91CF91F8
:100F20001F910F91FF90EF90DF90CF90BF90AF9007
:100F30009F907F906F90089520FD09C0FC0123FDD4
:100F400005C022FF02C073836283518340830895EA
:100F500044FD10C046FD10C0DB01FC01AA0FBB1F01
:100F6000EE1FFF1F1094D1F76A0F7B1F8E1F9F1F6C
:100F700031E003C033E001C034E0660F771F881F03
:100F8000991F3150D1F7620F711D811D911D089578
:100F90000F931F93CF93DF938C01C8010E94BC096C
:100FA000EC0197FD08C00E94A209892BB1F7B80196
:100FB000CE010E942C0ACE01DF91CF911F910F919B
:100FC00008958F929F92AF92CF92DF92EF92FF920D
:100FD0000F931F93CF93DF93EC01A62E4A01022FAC
:100FE0000E94BC09AC0155274B32510521F04D320E
:100FF000510551F40068AA9411F480E067C0CE0155
:101000000E94BC0997FDF9CF102F1D7F302F307340
:1010100001F58033F1F4FF24FA94FA0C09F442C08C
:10102000CE010E94BC0997FD3DC0382F3F7D383569
:1010300051F41264AA94AA94A9F1CE010E94BC09A9
:1010400097FF07C02FC006FF02C0126001C01261E7
:10105000AF2CC12CD12C760120ED280F283080F048
:1010600014FF04C0BE010E942C0A19C02A3040F0AF
:1010700016FFF8CF2F7D3FEE320F363098F727500E
:10108000412FC701B6010E94A8076B017C011260C5
:10109000AA9459F0CE010E94BC0997FFDDCF11FD43
:1010A00004C0ABCFC12CD12C760117FF08C0F0943F
:1010B000E094D094C094C11CD11CE11CF11C212FE0
:1010C000B701A601C4010E949C0781E0DF91CF9186
:1010D0001F910F91FF90EF90DF90CF90AF909F9076
:1010E0008F9008954F925F927F928F929F92AF92CE
:1010F000BF92CF92DF92EF92FF920F931F93CF9305
:10110000DF931F92CDB7DEB78C012B017A01FC0172
:1011100017821682A12CF801D380F201D3FC8591AD
:10112000D3FE8191382F2F01882309F4EFC090E07E
:1011300039830E94A2093981892B21F0C8010E94BC
:10114000C807E9CF353241F4F201D3FC3591D3FE23
:1011500031912F01353269F4C80139830E94BC09ED
:10116000398197FDD1C03817B1F2B8010E942C0A1D
:10117000CDC03A3241F4D3FC3591D3FE31912F01E9
:10118000BB24B39401C0B12C712C20ED230F2A3065
:1011900090F4FB2DF260BF2E672D70E080E090E0B0
:1011A00040E20E94A807762EF201D3FC3591D3FECF
:1011B00031912F01EACFB1FE03C0711003C0A6C068
:1011C00077247A94383619F03C3661F014C0F20175
:1011D000D3FC3591D3FE31912F01383661F4FB2DCC
:1011E000F860BF2E8B2D8460B82EF201D3FC3591B0
:1011F000D3FE31912F01332309F488C0632F70E0AF
:1012000087E391E039830E94AA093981892B09F487
:101210007DC0B0FC07C0F701C080D180C701029635
:101220007C0102C0C12CD12C3E3651F4F80146811C
:10123000578160E070E02B2DC6010E949C076BCFA8
:101240003336A1F4B1FC02C077247394C8010E9424
:10125000BC0997FD59C0C114D10429F0F60180835F
:10126000C60101966C017A9489F74AC0C801398396
:101270000E94C807398197FD47C03F3669F128F4BD
:10128000343631F1393679F12BC0333769F03537DF
:10129000F9F026C0C114D10429F0F6018082C601FC
:1012A00001966C017A9471F0C8010E94BC094C014E
:1012B00097FD08C00E94A209892B61F3B801C401FF
:1012C0000E942C0AC114D104D9F0F601108218C072
:1012D000FB2DF062BF2E07C08B2D8061B82E03C09E
:1012E0009B2D9064B92E2B2DA601672DC8010E945D
:1012F000E107811105C0F8018381807329F406C0DC
:10130000B0FC09CFA39407CFAA2019F08A2D90E052
:1013100002C08FEF9FEF0F90DF91CF911F910F9140
:10132000FF90EF90DF90CF90BF90AF909F908F9005
:101330007F905F904F900895EE0FFF1F0590F491FE
:10134000E02D19949111FFC0803219F08950855019
:10135000D0F70895FC010590061621F00020D9F77A
:10136000C00108953197CF010895DC0101C06D934C
:1013700041505040E0F70895CF93DF93EC012B816B
:1013800020FF33C026FF0AC02F7B2B838E819F81D5
:1013900001969F838E838A8190E029C022FF0FC02F
:1013A000E881F9818081992787FD9095009719F44C
:1013B00020622B831AC03196F983E8830EC0EA8538
:1013C000FB85199597FF09C02B81019611F480E1E7
:1013D00001C080E2822B8B8308C02E813F812F5F6A
:1013E0003F4F3F832E83992702C08FEF9FEFDF91FE
:1013F000CF9108950F931F93CF93DF93182F092F49
:10140000EB018B8181FD03C08FEF9FEF20C082FF36
:1014100010C04E815F812C813D81421753077CF4BF
:10142000E881F9819F012F5F3F4F39832883108323
:1014300006C0E885F985812F1995892B29F72E811A
:101440003F812F5F3F4F3F832E83812F902FDF916E
:10145000CF911F910F910895FB01238120FF12C0AE
:1014600026FD10C08F3F3FEF930761F082832F7DF1
:1014700020642383268137812150310937832683D5
:10148000992708958FEF9FEF0895FA01AA27283032
:1014900051F1203181F1E8946F936E7F6E5F7F4F41
:1014A0008F4F9F4FAF4FB1E03ED0B4E03CD0670FBD
:1014B000781F891F9A1FA11D680F791F8A1F911D10
:1014C000A11D6A0F711D811D911DA11D20D009F460
:1014D00068943F912AE0269F11243019305D3193A2
:1014E000DEF6CF010895462F4770405D4193B3E08B
:1014F0000FD0C9F7F6CF462F4F70405D4A3318F032
:10150000495D31FD4052419302D0A9F7EACFB4E0E2
:10151000A6959795879577956795BA95C9F700979A
:101520006105710508959B01AC010A2E069457953B
:10153000479537952795BA95C9F7620F731F841F92
:10154000951FA01D0895992788270895F894FFCF27
:00000001FF
