S00B00006C65642E73726563E4
S11300000C9472000C9493000C9493000C94930041
S11300100C9493000C9493000C9493000C94930010
S11300200C9493000C9493000C9493000C94930000
S11300300C9493000C9493000C9493000C949300F0
S11300400C9493000C9493000C9493000C949300E0
S11300500C9493000C9493000C9493000C949300D0
S11300600C9493000C9493000C9493000C949300C0
S11300700C9493000C9493000C9493000C949300B0
S11300800C9493000C9493000C9493000C949300A0
S11300900C9493000C9493000C9493000C94930090
S11300A00C9493000C9493000C9493000C94930080
S11300B00C9493000C9493000C9493000C94930070
S11300C00C9493000C9493000C9493000C94930060
S11300D00C9493000C9493000C9493000C94930050
S11300E00C94930011241FBECFEFD1E2DEBFCDBF2D
S11300F000E00CBF12E0A0E0B2E0E2E9F1E000E0D1
S11301000BBF02C007900D92A430B107D9F712E0DB
S1130110A4E0B2E001C01D92A830B107E1F70E944B
S1130120B1000C94C7000C94000085B1805885B9C7
S11301302FEF84E39CE0215080409040E1F700C021
S1130140000008951F920F920FB60F9211248F93FF
S113015085B1805885B98F910F900FBE0F901F9075
S11301601895279A0E9495000E9495000E94950078
S11301700E9495000E9495000E949500789483B790
S1130180816083BF889583B78E7F83BFFFCFF89448
S1050190FFCF9B
S10701921E00030044
S9030000FC
